{
  "_format": "hh-sol-artifact-1",
  "contractName": "IDAStaking",
  "sourceName": "contracts/IDAStaking.sol",
  "abi": [
    {
      "inputs": [
        {
          "internalType": "contract ISuperToken",
          "name": "_spreaderToken",
          "type": "address"
        }
      ],
      "stateMutability": "nonpayable",
      "type": "constructor"
    },
    {
      "inputs": [],
      "name": "INDEX_ID",
      "outputs": [
        {
          "internalType": "uint32",
          "name": "",
          "type": "uint32"
        }
      ],
      "stateMutability": "view",
      "type": "function"
    },
    {
      "inputs": [
        {
          "internalType": "contract ISuperfluid",
          "name": "_host",
          "type": "address"
        }
      ],
      "name": "createIndex",
      "outputs": [],
      "stateMutability": "nonpayable",
      "type": "function"
    },
    {
      "inputs": [],
      "name": "distribute",
      "outputs": [],
      "stateMutability": "nonpayable",
      "type": "function"
    },
    {
      "inputs": [
        {
          "internalType": "address",
          "name": "_user",
          "type": "address"
        }
      ],
      "name": "getStakingDetails",
      "outputs": [
        {
          "components": [
            {
              "internalType": "uint256",
              "name": "stakingTime",
              "type": "uint256"
            },
            {
              "internalType": "uint256",
              "name": "amount",
              "type": "uint256"
            },
            {
              "internalType": "uint256",
              "name": "rewards",
              "type": "uint256"
            },
            {
              "internalType": "uint256",
              "name": "totalReturn",
              "type": "uint256"
            },
            {
              "internalType": "uint256",
              "name": "withdrawTime",
              "type": "uint256"
            },
            {
              "internalType": "bool",
              "name": "isStaked",
              "type": "bool"
            },
            {
              "internalType": "bool",
              "name": "hasWithdraw",
              "type": "bool"
            }
          ],
          "internalType": "struct IDAStaking.StakingDetails[]",
          "name": "",
          "type": "tuple[]"
        }
      ],
      "stateMutability": "view",
      "type": "function"
    },
    {
      "inputs": [
        {
          "internalType": "uint32",
          "name": "",
          "type": "uint32"
        }
      ],
      "name": "idToPool",
      "outputs": [
        {
          "internalType": "uint32",
          "name": "id",
          "type": "uint32"
        },
        {
          "internalType": "uint256",
          "name": "totalStaked",
          "type": "uint256"
        },
        {
          "internalType": "uint256",
          "name": "startTime",
          "type": "uint256"
        },
        {
          "internalType": "uint256",
          "name": "endTime",
          "type": "uint256"
        }
      ],
      "stateMutability": "view",
      "type": "function"
    },
    {
      "inputs": [],
      "name": "idaV1",
      "outputs": [
        {
          "internalType": "contract ISuperfluid",
          "name": "host",
          "type": "address"
        },
        {
          "internalType": "contract IInstantDistributionAgreementV1",
          "name": "ida",
          "type": "address"
        }
      ],
      "stateMutability": "view",
      "type": "function"
    },
    {
      "inputs": [],
      "name": "spreaderToken",
      "outputs": [
        {
          "internalType": "contract ISuperToken",
          "name": "",
          "type": "address"
        }
      ],
      "stateMutability": "view",
      "type": "function"
    },
    {
      "inputs": [
        {
          "internalType": "address",
          "name": "_tokenAddress",
          "type": "address"
        },
        {
          "internalType": "uint256",
          "name": "_amount",
          "type": "uint256"
        }
      ],
      "name": "stakeTokens",
      "outputs": [],
      "stateMutability": "payable",
      "type": "function"
    },
    {
      "inputs": [
        {
          "internalType": "address",
          "name": "",
          "type": "address"
        },
        {
          "internalType": "uint256",
          "name": "",
          "type": "uint256"
        }
      ],
      "name": "userPools",
      "outputs": [
        {
          "internalType": "uint256",
          "name": "",
          "type": "uint256"
        }
      ],
      "stateMutability": "view",
      "type": "function"
    },
    {
      "inputs": [
        {
          "internalType": "address",
          "name": "",
          "type": "address"
        },
        {
          "internalType": "uint256",
          "name": "",
          "type": "uint256"
        }
      ],
      "name": "userToPoolToStakingDetails",
      "outputs": [
        {
          "internalType": "uint256",
          "name": "stakingTime",
          "type": "uint256"
        },
        {
          "internalType": "uint256",
          "name": "amount",
          "type": "uint256"
        },
        {
          "internalType": "uint256",
          "name": "rewards",
          "type": "uint256"
        },
        {
          "internalType": "uint256",
          "name": "totalReturn",
          "type": "uint256"
        },
        {
          "internalType": "uint256",
          "name": "withdrawTime",
          "type": "uint256"
        },
        {
          "internalType": "bool",
          "name": "isStaked",
          "type": "bool"
        },
        {
          "internalType": "bool",
          "name": "hasWithdraw",
          "type": "bool"
        }
      ],
      "stateMutability": "view",
      "type": "function"
    },
    {
      "inputs": [
        {
          "internalType": "uint32",
          "name": "_id",
          "type": "uint32"
        }
      ],
      "name": "withdrawTokens",
      "outputs": [],
      "stateMutability": "nonpayable",
      "type": "function"
    }
  ],
  "bytecode": "0x608060405261a8c0600355735d8b4c2554aeb7e86f387b4d6c00ac33499ed01f600460006101000a81548173ffffffffffffffffffffffffffffffffffffffff021916908373ffffffffffffffffffffffffffffffffffffffff1602179055506000600760006101000a81548163ffffffff021916908363ffffffff1602179055503480156200008e57600080fd5b5060405162002b7338038062002b738339818101604052810190620000b4919062000179565b806000806101000a81548173ffffffffffffffffffffffffffffffffffffffff021916908373ffffffffffffffffffffffffffffffffffffffff16021790555050620001ab565b600080fd5b600073ffffffffffffffffffffffffffffffffffffffff82169050919050565b60006200012d8262000100565b9050919050565b6000620001418262000120565b9050919050565b620001538162000134565b81146200015f57600080fd5b50565b600081519050620001738162000148565b92915050565b600060208284031215620001925762000191620000fb565b5b6000620001a28482850162000162565b91505092915050565b6129b880620001bb6000396000f3fe60806040526004361061009c5760003560e01c8063844a5f5f11610064578063844a5f5f146101a65780638c7f0959146101d15780639ddeb5c9146101fc578063c37ac23b14610225578063e4fc6b6d1461024e578063fc936668146102655761009c565b80631064aa55146100a15780631cc8ca99146100de5780636f5492e21461010a57806379a83f5a146101475780637ce3c7df14610163575b600080fd5b3480156100ad57600080fd5b506100c860048036038101906100c391906119b6565b6102a5565b6040516100d59190611a05565b60405180910390f35b3480156100ea57600080fd5b506100f36102d6565b604051610101929190611aa0565b60405180910390f35b34801561011657600080fd5b50610131600480360381019061012c9190611ac9565b610328565b60405161013e9190611c5d565b60405180910390f35b610161600480360381019061015c91906119b6565b6104d1565b005b34801561016f57600080fd5b5061018a600480360381019061018591906119b6565b6109a6565b60405161019d9796959493929190611c8e565b60405180910390f35b3480156101b257600080fd5b506101bb610a0f565b6040516101c89190611d1e565b60405180910390f35b3480156101dd57600080fd5b506101e6610a33565b6040516101f39190611d58565b60405180910390f35b34801561020857600080fd5b50610223600480360381019061021e9190611db1565b610a49565b005b34801561023157600080fd5b5061024c60048036038101906102479190611e0a565b610d00565b005b34801561025a57600080fd5b506102636110b2565b005b34801561027157600080fd5b5061028c60048036038101906102879190611e0a565b611279565b60405161029c9493929190611e37565b60405180910390f35b600660205281600052604060002081815481106102c157600080fd5b90600052602060002001600091509150505481565b60018060000160009054906101000a900473ffffffffffffffffffffffffffffffffffffffff16908060010160009054906101000a900473ffffffffffffffffffffffffffffffffffffffff16905082565b60608060005b600660008573ffffffffffffffffffffffffffffffffffffffff1673ffffffffffffffffffffffffffffffffffffffff168152602001908152602001600020805490508110156104c757600560003373ffffffffffffffffffffffffffffffffffffffff1673ffffffffffffffffffffffffffffffffffffffff1681526020019081526020016000206000600660008773ffffffffffffffffffffffffffffffffffffffff1673ffffffffffffffffffffffffffffffffffffffff168152602001908152602001600020838154811061040a57610409611e7c565b5b906000526020600020015481526020019081526020016000206040518060e001604052908160008201548152602001600182015481526020016002820154815260200160038201548152602001600482015481526020016005820160009054906101000a900460ff161515151581526020016005820160019054906101000a900460ff1615151515815250508282815181106104a9576104a8611e7c565b5b602002602001018190525080806104bf90611eda565b91505061032e565b5080915050919050565b60008111610514576040517f08c379a000000000000000000000000000000000000000000000000000000000815260040161050b90611f7f565b60405180910390fd5b600460009054906101000a900473ffffffffffffffffffffffffffffffffffffffff1673ffffffffffffffffffffffffffffffffffffffff168273ffffffffffffffffffffffffffffffffffffffff16146105a4576040517f08c379a000000000000000000000000000000000000000000000000000000000815260040161059b90611feb565b60405180910390fd5b60086000600760009054906101000a900463ffffffff1663ffffffff1663ffffffff16815260200190815260200160002060020154421180156106275750611c2060086000600760009054906101000a900463ffffffff1663ffffffff1663ffffffff16815260200190815260200160002060020154610624919061200b565b42105b610666576040517f08c379a000000000000000000000000000000000000000000000000000000000815260040161065d906120d3565b60405180910390fd5b600560003373ffffffffffffffffffffffffffffffffffffffff1673ffffffffffffffffffffffffffffffffffffffff1681526020019081526020016000206000600760009054906101000a900463ffffffff1663ffffffff16815260200190815260200160002060050160009054906101000a900460ff161561071f576040517f08c379a000000000000000000000000000000000000000000000000000000000815260040161071690612165565b60405180910390fd5b670de0b6b3a7640000816107339190612185565b3414610774576040517f08c379a000000000000000000000000000000000000000000000000000000000815260040161076b9061222b565b60405180910390fd5b8060086000600760009054906101000a900463ffffffff1663ffffffff1663ffffffff16815260200190815260200160002060010160008282546107b8919061200b565b92505081905550600660003373ffffffffffffffffffffffffffffffffffffffff1673ffffffffffffffffffffffffffffffffffffffff168152602001908152602001600020600760009054906101000a900463ffffffff16908060018154018082558091505060019003906000526020600020016000909163ffffffff169091909150556040518060e0016040528042815260200182815260200160008152602001600081526020016000815260200160011515815260200160001515815250600560003373ffffffffffffffffffffffffffffffffffffffff1673ffffffffffffffffffffffffffffffffffffffff1681526020019081526020016000206000600760009054906101000a900463ffffffff1663ffffffff168152602001908152602001600020600082015181600001556020820151816001015560408201518160020155606082015181600301556080820151816004015560a08201518160050160006101000a81548160ff02191690831515021790555060c08201518160050160016101000a81548160ff0219169083151502179055509050506109a260008054906101000a900473ffffffffffffffffffffffffffffffffffffffff16600760009054906101000a900463ffffffff16338460016112b990949392919063ffffffff16565b5050565b6005602052816000526040600020602052806000526040600020600091509150508060000154908060010154908060020154908060030154908060040154908060050160009054906101000a900460ff16908060050160019054906101000a900460ff16905087565b60008054906101000a900473ffffffffffffffffffffffffffffffffffffffff1681565b600760009054906101000a900463ffffffff1681565b60405180604001604052808273ffffffffffffffffffffffffffffffffffffffff1681526020018273ffffffffffffffffffffffffffffffffffffffff1663b6d200de7f8aedc3b5d4bf031e11a7e2940f7251c005698405d58e02e1c247fed3b1b3a6746040518263ffffffff1660e01b8152600401610ac99190612264565b602060405180830381865afa158015610ae6573d6000803e3d6000fd5b505050506040513d601f19601f82011682018060405250810190610b0a91906122bd565b73ffffffffffffffffffffffffffffffffffffffff16815250600160008201518160000160006101000a81548173ffffffffffffffffffffffffffffffffffffffff021916908373ffffffffffffffffffffffffffffffffffffffff16021790555060208201518160010160006101000a81548173ffffffffffffffffffffffffffffffffffffffff021916908373ffffffffffffffffffffffffffffffffffffffff1602179055509050506001600760009054906101000a900463ffffffff16610bd591906122ea565b600760006101000a81548163ffffffff021916908363ffffffff160217905550610c3d60008054906101000a900473ffffffffffffffffffffffffffffffffffffffff16600760009054906101000a900463ffffffff16600161131b9092919063ffffffff16565b6040518060800160405280600760009054906101000a900463ffffffff1663ffffffff1681526020016000815260200142815260200160035442610c81919061200b565b81525060086000600760009054906101000a900463ffffffff1663ffffffff1663ffffffff16815260200190815260200160002060008201518160000160006101000a81548163ffffffff021916908363ffffffff16021790555060208201518160010155604082015181600201556060820151816003015590505050565b600860008263ffffffff1663ffffffff168152602001908152602001600020600301544211610d64576040517f08c379a0000000000000000000000000000000000000000000000000000000008152600401610d5b90612396565b60405180910390fd5b600560003373ffffffffffffffffffffffffffffffffffffffff1673ffffffffffffffffffffffffffffffffffffffff16815260200190815260200160002060008263ffffffff16815260200190815260200160002060050160009054906101000a900460ff16610e0a576040517f08c379a0000000000000000000000000000000000000000000000000000000008152600401610e0190612402565b60405180910390fd5b600560003373ffffffffffffffffffffffffffffffffffffffff1673ffffffffffffffffffffffffffffffffffffffff16815260200190815260200160002060008263ffffffff16815260200190815260200160002060050160019054906101000a900460ff1615610eb1576040517f08c379a0000000000000000000000000000000000000000000000000000000008152600401610ea890612494565b60405180910390fd5b6000610ebc33611379565b9050600560003373ffffffffffffffffffffffffffffffffffffffff1673ffffffffffffffffffffffffffffffffffffffff16815260200190815260200160002060008363ffffffff1681526020019081526020016000206001015481610f2391906124b4565b600560003373ffffffffffffffffffffffffffffffffffffffff1673ffffffffffffffffffffffffffffffffffffffff16815260200190815260200160002060008463ffffffff1681526020019081526020016000206002018190555080600560003373ffffffffffffffffffffffffffffffffffffffff1673ffffffffffffffffffffffffffffffffffffffff16815260200190815260200160002060008463ffffffff1681526020019081526020016000206003018190555042600560003373ffffffffffffffffffffffffffffffffffffffff1673ffffffffffffffffffffffffffffffffffffffff16815260200190815260200160002060008463ffffffff168152602001908152602001600020600401819055506001600560003373ffffffffffffffffffffffffffffffffffffffff1673ffffffffffffffffffffffffffffffffffffffff16815260200190815260200160002060008463ffffffff16815260200190815260200160002060050160016101000a81548160ff0219169083151502179055505050565b60008060009054906101000a900473ffffffffffffffffffffffffffffffffffffffff1673ffffffffffffffffffffffffffffffffffffffff166370a08231306040518263ffffffff1660e01b815260040161110e91906124f7565b602060405180830381865afa15801561112b573d6000803e3d6000fd5b505050506040513d601f19601f8201168201806040525081019061114f9190612527565b905060006001800160009054906101000a900473ffffffffffffffffffffffffffffffffffffffff1673ffffffffffffffffffffffffffffffffffffffff1663899baaec60008054906101000a900473ffffffffffffffffffffffffffffffffffffffff1630600760009054906101000a900463ffffffff16866040518563ffffffff1660e01b81526004016111e89493929190612554565b6040805180830381865afa158015611204573d6000803e3d6000fd5b505050506040513d601f19601f8201168201806040525081019061122891906125e1565b50905061127560008054906101000a900473ffffffffffffffffffffffffffffffffffffffff16600760009054906101000a900463ffffffff16836001611380909392919063ffffffff16565b5050565b60086020528060005260406000206000915090508060000160009054906101000a900463ffffffff16908060010154908060020154908060030154905084565b6113148585858585600067ffffffffffffffff8111156112dc576112db612621565b5b6040519080825280601f01601f19166020018201604052801561130e5781602001600182028036833780820191505090505b506113e0565b5050505050565b611374838383600067ffffffffffffffff81111561133c5761133b612621565b5b6040519080825280601f01601f19166020018201604052801561136e5781602001600182028036833780820191505090505b5061159d565b505050565b6000919050565b6113da84848484600067ffffffffffffffff8111156113a2576113a1612621565b5b6040519080825280601f01601f1916602001820160405280156113d45781602001600182028036833780820191505090505b50611754565b50505050565b8560000160009054906101000a900473ffffffffffffffffffffffffffffffffffffffff1673ffffffffffffffffffffffffffffffffffffffff166339255d5b8760010160009054906101000a900473ffffffffffffffffffffffffffffffffffffffff168860010160009054906101000a900473ffffffffffffffffffffffffffffffffffffffff1673ffffffffffffffffffffffffffffffffffffffff1663232d2b5889898989600067ffffffffffffffff8111156114a4576114a3612621565b5b6040519080825280601f01601f1916602001820160405280156114d65781602001600182028036833780820191505090505b506040516024016114eb959493929190612719565b604051602081830303815290604052915060e01b6020820180517bffffffffffffffffffffffffffffffffffffffffffffffffffffffff8381831617835250505050846040518463ffffffff1660e01b815260040161154c93929190612773565b6000604051808303816000875af115801561156b573d6000803e3d6000fd5b505050506040513d6000823e3d601f19601f8201168201806040525081019061159491906128af565b50505050505050565b8360000160009054906101000a900473ffffffffffffffffffffffffffffffffffffffff1673ffffffffffffffffffffffffffffffffffffffff166339255d5b8560010160009054906101000a900473ffffffffffffffffffffffffffffffffffffffff168660010160009054906101000a900473ffffffffffffffffffffffffffffffffffffffff1673ffffffffffffffffffffffffffffffffffffffff1663d787840a8787600067ffffffffffffffff81111561165f5761165e612621565b5b6040519080825280601f01601f1916602001820160405280156116915781602001600182028036833780820191505090505b506040516024016116a4939291906128f8565b604051602081830303815290604052915060e01b6020820180517bffffffffffffffffffffffffffffffffffffffffffffffffffffffff8381831617835250505050846040518463ffffffff1660e01b815260040161170593929190612773565b6000604051808303816000875af1158015611724573d6000803e3d6000fd5b505050506040513d6000823e3d601f19601f8201168201806040525081019061174d91906128af565b5050505050565b8460000160009054906101000a900473ffffffffffffffffffffffffffffffffffffffff1673ffffffffffffffffffffffffffffffffffffffff166339255d5b8660010160009054906101000a900473ffffffffffffffffffffffffffffffffffffffff168760010160009054906101000a900473ffffffffffffffffffffffffffffffffffffffff1673ffffffffffffffffffffffffffffffffffffffff1663b96731c2888888600067ffffffffffffffff81111561181757611816612621565b5b6040519080825280601f01601f1916602001820160405280156118495781602001600182028036833780820191505090505b5060405160240161185d9493929190612936565b604051602081830303815290604052915060e01b6020820180517bffffffffffffffffffffffffffffffffffffffffffffffffffffffff8381831617835250505050846040518463ffffffff1660e01b81526004016118be93929190612773565b6000604051808303816000875af11580156118dd573d6000803e3d6000fd5b505050506040513d6000823e3d601f19601f8201168201806040525081019061190691906128af565b505050505050565b6000604051905090565b600080fd5b600080fd5b600073ffffffffffffffffffffffffffffffffffffffff82169050919050565b600061194d82611922565b9050919050565b61195d81611942565b811461196857600080fd5b50565b60008135905061197a81611954565b92915050565b6000819050919050565b61199381611980565b811461199e57600080fd5b50565b6000813590506119b08161198a565b92915050565b600080604083850312156119cd576119cc611918565b5b60006119db8582860161196b565b92505060206119ec858286016119a1565b9150509250929050565b6119ff81611980565b82525050565b6000602082019050611a1a60008301846119f6565b92915050565b6000819050919050565b6000611a45611a40611a3b84611922565b611a20565b611922565b9050919050565b6000611a5782611a2a565b9050919050565b6000611a6982611a4c565b9050919050565b611a7981611a5e565b82525050565b6000611a8a82611a4c565b9050919050565b611a9a81611a7f565b82525050565b6000604082019050611ab56000830185611a70565b611ac26020830184611a91565b9392505050565b600060208284031215611adf57611ade611918565b5b6000611aed8482850161196b565b91505092915050565b600081519050919050565b600082825260208201905092915050565b6000819050602082019050919050565b611b2b81611980565b82525050565b60008115159050919050565b611b4681611b31565b82525050565b60e082016000820151611b626000850182611b22565b506020820151611b756020850182611b22565b506040820151611b886040850182611b22565b506060820151611b9b6060850182611b22565b506080820151611bae6080850182611b22565b5060a0820151611bc160a0850182611b3d565b5060c0820151611bd460c0850182611b3d565b50505050565b6000611be68383611b4c565b60e08301905092915050565b6000602082019050919050565b6000611c0a82611af6565b611c148185611b01565b9350611c1f83611b12565b8060005b83811015611c50578151611c378882611bda565b9750611c4283611bf2565b925050600181019050611c23565b5085935050505092915050565b60006020820190508181036000830152611c778184611bff565b905092915050565b611c8881611b31565b82525050565b600060e082019050611ca3600083018a6119f6565b611cb060208301896119f6565b611cbd60408301886119f6565b611cca60608301876119f6565b611cd760808301866119f6565b611ce460a0830185611c7f565b611cf160c0830184611c7f565b98975050505050505050565b6000611d0882611a4c565b9050919050565b611d1881611cfd565b82525050565b6000602082019050611d336000830184611d0f565b92915050565b600063ffffffff82169050919050565b611d5281611d39565b82525050565b6000602082019050611d6d6000830184611d49565b92915050565b6000611d7e82611942565b9050919050565b611d8e81611d73565b8114611d9957600080fd5b50565b600081359050611dab81611d85565b92915050565b600060208284031215611dc757611dc6611918565b5b6000611dd584828501611d9c565b91505092915050565b611de781611d39565b8114611df257600080fd5b50565b600081359050611e0481611dde565b92915050565b600060208284031215611e2057611e1f611918565b5b6000611e2e84828501611df5565b91505092915050565b6000608082019050611e4c6000830187611d49565b611e5960208301866119f6565b611e6660408301856119f6565b611e7360608301846119f6565b95945050505050565b7f4e487b7100000000000000000000000000000000000000000000000000000000600052603260045260246000fd5b7f4e487b7100000000000000000000000000000000000000000000000000000000600052601160045260246000fd5b6000611ee582611980565b91507fffffffffffffffffffffffffffffffffffffffffffffffffffffffffffffffff8203611f1757611f16611eab565b5b600182019050919050565b600082825260208201905092915050565b7f416d6f756e74206d7573742062652067726561746572207468616e207a65726f600082015250565b6000611f69602083611f22565b9150611f7482611f33565b602082019050919050565b60006020820190508181036000830152611f9881611f5c565b9050919050565b7f596f752063616e206e6f74207374616b65207468697320746f6b656e00000000600082015250565b6000611fd5601c83611f22565b9150611fe082611f9f565b602082019050919050565b6000602082019050818103600083015261200481611fc8565b9050919050565b600061201682611980565b915061202183611980565b9250827fffffffffffffffffffffffffffffffffffffffffffffffffffffffffffffffff0382111561205657612055611eab565b5b828201905092915050565b7f5761697420666f7220746865206e6578742074696d6520706572696f6420746f60008201527f2073746172740000000000000000000000000000000000000000000000000000602082015250565b60006120bd602683611f22565b91506120c882612061565b604082019050919050565b600060208201905081810360008301526120ec816120b0565b9050919050565b7f596f75206861766520616c7265616479207374616b656420696e20746869732060008201527f706f6f6c21000000000000000000000000000000000000000000000000000000602082015250565b600061214f602583611f22565b915061215a826120f3565b604082019050919050565b6000602082019050818103600083015261217e81612142565b9050919050565b600061219082611980565b915061219b83611980565b9250817fffffffffffffffffffffffffffffffffffffffffffffffffffffffffffffffff04831182151516156121d4576121d3611eab565b5b828202905092915050565b7f4e6f7420656e6f7567682076616c756521000000000000000000000000000000600082015250565b6000612215601183611f22565b9150612220826121df565b602082019050919050565b6000602082019050818103600083015261224481612208565b9050919050565b6000819050919050565b61225e8161224b565b82525050565b60006020820190506122796000830184612255565b92915050565b600061228a82611942565b9050919050565b61229a8161227f565b81146122a557600080fd5b50565b6000815190506122b781612291565b92915050565b6000602082840312156122d3576122d2611918565b5b60006122e1848285016122a8565b91505092915050565b60006122f582611d39565b915061230083611d39565b92508263ffffffff0382111561231957612318611eab565b5b828201905092915050565b7f596f752063616e206e6f7420636c61696d206974207269676874206e6f772e2060008201527f5468652074696d65206973206c65667420746f20636c61696d00000000000000602082015250565b6000612380603983611f22565b915061238b82612324565b604082019050919050565b600060208201905081810360008301526123af81612373565b9050919050565b7f596f752068617665206e6f74207374616b656420696e207468697320706f6f6c600082015250565b60006123ec602083611f22565b91506123f7826123b6565b602082019050919050565b6000602082019050818103600083015261241b816123df565b9050919050565b7f596f75206861766520616c726561647920776974686472617720796f7572207260008201527f6577617264732066726f6d207468697320706f6f6c0000000000000000000000602082015250565b600061247e603583611f22565b915061248982612422565b604082019050919050565b600060208201905081810360008301526124ad81612471565b9050919050565b60006124bf82611980565b91506124ca83611980565b9250828210156124dd576124dc611eab565b5b828203905092915050565b6124f181611942565b82525050565b600060208201905061250c60008301846124e8565b92915050565b6000815190506125218161198a565b92915050565b60006020828403121561253d5761253c611918565b5b600061254b84828501612512565b91505092915050565b60006080820190506125696000830187611d0f565b61257660208301866124e8565b6125836040830185611d49565b61259060608301846119f6565b95945050505050565b60006fffffffffffffffffffffffffffffffff82169050919050565b6125be81612599565b81146125c957600080fd5b50565b6000815190506125db816125b5565b92915050565b600080604083850312156125f8576125f7611918565b5b600061260685828601612512565b9250506020612617858286016125cc565b9150509250929050565b7f4e487b7100000000000000000000000000000000000000000000000000000000600052604160045260246000fd5b600061265b82611a4c565b9050919050565b61266b81612650565b82525050565b61267a81612599565b82525050565b600081519050919050565b600082825260208201905092915050565b60005b838110156126ba57808201518184015260208101905061269f565b838111156126c9576000848401525b50505050565b6000601f19601f8301169050919050565b60006126eb82612680565b6126f5818561268b565b935061270581856020860161269c565b61270e816126cf565b840191505092915050565b600060a08201905061272e6000830188612662565b61273b6020830187611d49565b61274860408301866124e8565b6127556060830185612671565b818103608083015261276781846126e0565b90509695505050505050565b60006060820190506127886000830186611a91565b818103602083015261279a81856126e0565b905081810360408301526127ae81846126e0565b9050949350505050565b600080fd5b600080fd5b6127cb826126cf565b810181811067ffffffffffffffff821117156127ea576127e9612621565b5b80604052505050565b60006127fd61190e565b905061280982826127c2565b919050565b600067ffffffffffffffff82111561282957612828612621565b5b612832826126cf565b9050602081019050919050565b600061285261284d8461280e565b6127f3565b90508281526020810184848401111561286e5761286d6127bd565b5b61287984828561269c565b509392505050565b600082601f830112612896576128956127b8565b5b81516128a684826020860161283f565b91505092915050565b6000602082840312156128c5576128c4611918565b5b600082015167ffffffffffffffff8111156128e3576128e261191d565b5b6128ef84828501612881565b91505092915050565b600060608201905061290d6000830186612662565b61291a6020830185611d49565b818103604083015261292c81846126e0565b9050949350505050565b600060808201905061294b6000830187612662565b6129586020830186611d49565b61296560408301856119f6565b818103606083015261297781846126e0565b90509594505050505056fea2646970667358221220d905bdfb580b74ec91f97d5500a1377dedf2cadeb51ece168134a10bf6236e2c64736f6c634300080d0033",
  "linkReferences": {},
  "deployedLinkReferences": {}
}